{
  "_format": "hh-sol-artifact-1",
  "contractName": "Blog",
  "sourceName": "contracts/Blog.sol",
  "abi": [
    {
      "inputs": [
        {
          "internalType": "string",
          "name": "name_",
          "type": "string"
        },
        {
          "internalType": "string",
          "name": "symbol_",
          "type": "string"
        }
      ],
      "stateMutability": "nonpayable",
      "type": "constructor"
    },
    {
      "anonymous": false,
      "inputs": [
        {
          "indexed": true,
          "internalType": "address",
          "name": "owner",
          "type": "address"
        },
        {
          "indexed": true,
          "internalType": "address",
          "name": "approved",
          "type": "address"
        },
        {
          "indexed": true,
          "internalType": "uint256",
          "name": "tokenId",
          "type": "uint256"
        }
      ],
      "name": "Approval",
      "type": "event"
    },
    {
      "anonymous": false,
      "inputs": [
        {
          "indexed": true,
          "internalType": "address",
          "name": "owner",
          "type": "address"
        },
        {
          "indexed": true,
          "internalType": "address",
          "name": "operator",
          "type": "address"
        },
        {
          "indexed": false,
          "internalType": "bool",
          "name": "approved",
          "type": "bool"
        }
      ],
      "name": "ApprovalForAll",
      "type": "event"
    },
    {
      "anonymous": false,
      "inputs": [
        {
          "indexed": true,
          "internalType": "address",
          "name": "from",
          "type": "address"
        },
        {
          "indexed": true,
          "internalType": "address",
          "name": "to",
          "type": "address"
        },
        {
          "indexed": true,
          "internalType": "uint256",
          "name": "tokenId",
          "type": "uint256"
        }
      ],
      "name": "Transfer",
      "type": "event"
    },
    {
      "inputs": [
        {
          "internalType": "address",
          "name": "to",
          "type": "address"
        },
        {
          "internalType": "uint256",
          "name": "tokenId",
          "type": "uint256"
        }
      ],
      "name": "approve",
      "outputs": [],
      "stateMutability": "nonpayable",
      "type": "function"
    },
    {
      "inputs": [
        {
          "internalType": "address",
          "name": "owner",
          "type": "address"
        }
      ],
      "name": "balanceOf",
      "outputs": [
        {
          "internalType": "uint256",
          "name": "",
          "type": "uint256"
        }
      ],
      "stateMutability": "view",
      "type": "function"
    },
    {
      "inputs": [
        {
          "internalType": "uint256",
          "name": "tokenId",
          "type": "uint256"
        }
      ],
      "name": "getApproved",
      "outputs": [
        {
          "internalType": "address",
          "name": "",
          "type": "address"
        }
      ],
      "stateMutability": "view",
      "type": "function"
    },
    {
      "inputs": [
        {
          "internalType": "address",
          "name": "owner",
          "type": "address"
        },
        {
          "internalType": "address",
          "name": "operator",
          "type": "address"
        }
      ],
      "name": "isApprovedForAll",
      "outputs": [
        {
          "internalType": "bool",
          "name": "",
          "type": "bool"
        }
      ],
      "stateMutability": "view",
      "type": "function"
    },
    {
      "inputs": [],
      "name": "name",
      "outputs": [
        {
          "internalType": "string",
          "name": "",
          "type": "string"
        }
      ],
      "stateMutability": "view",
      "type": "function"
    },
    {
      "inputs": [
        {
          "internalType": "uint256",
          "name": "index",
          "type": "uint256"
        },
        {
          "internalType": "bool",
          "name": "mode",
          "type": "bool"
        }
      ],
      "name": "ownedChangeMode",
      "outputs": [],
      "stateMutability": "nonpayable",
      "type": "function"
    },
    {
      "inputs": [
        {
          "internalType": "string",
          "name": "uri",
          "type": "string"
        },
        {
          "internalType": "bool",
          "name": "mode",
          "type": "bool"
        }
      ],
      "name": "ownedMint",
      "outputs": [],
      "stateMutability": "nonpayable",
      "type": "function"
    },
    {
      "inputs": [
        {
          "internalType": "uint256",
          "name": "index",
          "type": "uint256"
        }
      ],
      "name": "ownedTokenURI",
      "outputs": [
        {
          "internalType": "string",
          "name": "",
          "type": "string"
        },
        {
          "internalType": "bool",
          "name": "",
          "type": "bool"
        }
      ],
      "stateMutability": "view",
      "type": "function"
    },
    {
      "inputs": [],
      "name": "ownedTotalSupply",
      "outputs": [
        {
          "internalType": "uint256",
          "name": "",
          "type": "uint256"
        }
      ],
      "stateMutability": "view",
      "type": "function"
    },
    {
      "inputs": [
        {
          "internalType": "uint256",
          "name": "tokenId",
          "type": "uint256"
        }
      ],
      "name": "ownerOf",
      "outputs": [
        {
          "internalType": "address",
          "name": "",
          "type": "address"
        }
      ],
      "stateMutability": "view",
      "type": "function"
    },
    {
      "inputs": [
        {
          "internalType": "address",
          "name": "from",
          "type": "address"
        },
        {
          "internalType": "address",
          "name": "to",
          "type": "address"
        },
        {
          "internalType": "uint256",
          "name": "tokenId",
          "type": "uint256"
        }
      ],
      "name": "safeTransferFrom",
      "outputs": [],
      "stateMutability": "nonpayable",
      "type": "function"
    },
    {
      "inputs": [
        {
          "internalType": "address",
          "name": "from",
          "type": "address"
        },
        {
          "internalType": "address",
          "name": "to",
          "type": "address"
        },
        {
          "internalType": "uint256",
          "name": "tokenId",
          "type": "uint256"
        },
        {
          "internalType": "bytes",
          "name": "data",
          "type": "bytes"
        }
      ],
      "name": "safeTransferFrom",
      "outputs": [],
      "stateMutability": "nonpayable",
      "type": "function"
    },
    {
      "inputs": [
        {
          "internalType": "address",
          "name": "operator",
          "type": "address"
        },
        {
          "internalType": "bool",
          "name": "approved",
          "type": "bool"
        }
      ],
      "name": "setApprovalForAll",
      "outputs": [],
      "stateMutability": "nonpayable",
      "type": "function"
    },
    {
      "inputs": [
        {
          "internalType": "bytes4",
          "name": "interfaceId",
          "type": "bytes4"
        }
      ],
      "name": "supportsInterface",
      "outputs": [
        {
          "internalType": "bool",
          "name": "",
          "type": "bool"
        }
      ],
      "stateMutability": "view",
      "type": "function"
    },
    {
      "inputs": [],
      "name": "symbol",
      "outputs": [
        {
          "internalType": "string",
          "name": "",
          "type": "string"
        }
      ],
      "stateMutability": "view",
      "type": "function"
    },
    {
      "inputs": [
        {
          "internalType": "uint256",
          "name": "index",
          "type": "uint256"
        }
      ],
      "name": "tokenByIndex",
      "outputs": [
        {
          "internalType": "uint256",
          "name": "",
          "type": "uint256"
        }
      ],
      "stateMutability": "view",
      "type": "function"
    },
    {
      "inputs": [
        {
          "internalType": "address",
          "name": "owner",
          "type": "address"
        },
        {
          "internalType": "uint256",
          "name": "index",
          "type": "uint256"
        }
      ],
      "name": "tokenOfOwnerByIndex",
      "outputs": [
        {
          "internalType": "uint256",
          "name": "",
          "type": "uint256"
        }
      ],
      "stateMutability": "view",
      "type": "function"
    },
    {
      "inputs": [
        {
          "internalType": "uint256",
          "name": "tokenId",
          "type": "uint256"
        }
      ],
      "name": "tokenURI",
      "outputs": [
        {
          "internalType": "string",
          "name": "",
          "type": "string"
        }
      ],
      "stateMutability": "view",
      "type": "function"
    },
    {
      "inputs": [],
      "name": "totalSupply",
      "outputs": [
        {
          "internalType": "uint256",
          "name": "",
          "type": "uint256"
        }
      ],
      "stateMutability": "view",
      "type": "function"
    },
    {
      "inputs": [
        {
          "internalType": "address",
          "name": "from",
          "type": "address"
        },
        {
          "internalType": "address",
          "name": "to",
          "type": "address"
        },
        {
          "internalType": "uint256",
          "name": "tokenId",
          "type": "uint256"
        }
      ],
      "name": "transferFrom",
      "outputs": [],
      "stateMutability": "nonpayable",
      "type": "function"
    },
    {
      "inputs": [
        {
          "internalType": "uint256",
          "name": "index",
          "type": "uint256"
        }
      ],
      "name": "visibleTokenURI",
      "outputs": [
        {
          "internalType": "string",
          "name": "",
          "type": "string"
        },
        {
          "internalType": "uint256",
          "name": "",
          "type": "uint256"
        },
        {
          "internalType": "bool",
          "name": "",
          "type": "bool"
        }
      ],
      "stateMutability": "view",
      "type": "function"
    }
  ],
  "bytecode": "0x60806040523480156200001157600080fd5b5060405162003ef138038062003ef18339818101604052810190620000379190620001fa565b818181600090816200004a9190620004ca565b5080600190816200005c9190620004ca565b5050505050620005b1565b6000604051905090565b600080fd5b600080fd5b600080fd5b600080fd5b6000601f19601f8301169050919050565b7f4e487b7100000000000000000000000000000000000000000000000000000000600052604160045260246000fd5b620000d08262000085565b810181811067ffffffffffffffff82111715620000f257620000f162000096565b5b80604052505050565b60006200010762000067565b9050620001158282620000c5565b919050565b600067ffffffffffffffff82111562000138576200013762000096565b5b620001438262000085565b9050602081019050919050565b60005b838110156200017057808201518184015260208101905062000153565b60008484015250505050565b6000620001936200018d846200011a565b620000fb565b905082815260208101848484011115620001b257620001b162000080565b5b620001bf84828562000150565b509392505050565b600082601f830112620001df57620001de6200007b565b5b8151620001f18482602086016200017c565b91505092915050565b6000806040838503121562000214576200021362000071565b5b600083015167ffffffffffffffff81111562000235576200023462000076565b5b6200024385828601620001c7565b925050602083015167ffffffffffffffff81111562000267576200026662000076565b5b6200027585828601620001c7565b9150509250929050565b600081519050919050565b7f4e487b7100000000000000000000000000000000000000000000000000000000600052602260045260246000fd5b60006002820490506001821680620002d257607f821691505b602082108103620002e857620002e76200028a565b5b50919050565b60008190508160005260206000209050919050565b60006020601f8301049050919050565b600082821b905092915050565b600060088302620003527fffffffffffffffffffffffffffffffffffffffffffffffffffffffffffffffff8262000313565b6200035e868362000313565b95508019841693508086168417925050509392505050565b6000819050919050565b6000819050919050565b6000620003ab620003a56200039f8462000376565b62000380565b62000376565b9050919050565b6000819050919050565b620003c7836200038a565b620003df620003d682620003b2565b84845462000320565b825550505050565b600090565b620003f6620003e7565b62000403818484620003bc565b505050565b5b818110156200042b576200041f600082620003ec565b60018101905062000409565b5050565b601f8211156200047a576200044481620002ee565b6200044f8462000303565b810160208510156200045f578190505b620004776200046e8562000303565b83018262000408565b50505b505050565b600082821c905092915050565b60006200049f600019846008026200047f565b1980831691505092915050565b6000620004ba83836200048c565b9150826002028217905092915050565b620004d5826200027f565b67ffffffffffffffff811115620004f157620004f062000096565b5b620004fd8254620002b9565b6200050a8282856200042f565b600060209050601f8311600181146200054257600084156200052d578287015190505b620005398582620004ac565b865550620005a9565b601f1984166200055286620002ee565b60005b828110156200057c5784890151825560018201915060208501945060208101905062000555565b868310156200059c578489015162000598601f8916826200048c565b8355505b6001600288020188555050505b505050505050565b61393080620005c16000396000f3fe608060405234801561001057600080fd5b50600436106101375760003560e01c80634f6ccce7116100b8578063a22cb4651161007c578063a22cb46514610376578063b7fa8bdc14610392578063b88d4fde146103ae578063c87b56dd146103ca578063e985e9c5146103fa578063edcc4a7c1461042a57610137565b80634f6ccce7146102965780636352211e146102c6578063636908f3146102f657806370a082311461032857806395d89b411461035857610137565b806318160ddd116100ff57806318160ddd146101f457806323b872dd146102125780632f745c591461022e57806339ca778c1461025e57806342842e0e1461027a57610137565b806301ffc9a71461013c57806306fdde031461016c578063081812fc1461018a578063095ea7b3146101ba578063140b5627146101d6575b600080fd5b6101566004803603810190610151919061245a565b61045b565b60405161016391906124a2565b60405180910390f35b61017461046d565b604051610181919061254d565b60405180910390f35b6101a4600480360381019061019f91906125a5565b6104ff565b6040516101b19190612613565b60405180910390f35b6101d460048036038101906101cf919061265a565b610545565b005b6101de61065c565b6040516101eb91906126a9565b60405180910390f35b6101fc61066c565b60405161020991906126a9565b60405180910390f35b61022c600480360381019061022791906126c4565b61067b565b005b6102486004803603810190610243919061265a565b6106db565b60405161025591906126a9565b60405180910390f35b61027860048036038101906102739190612743565b610780565b005b610294600480360381019061028f91906126c4565b6107be565b005b6102b060048036038101906102ab91906125a5565b6107de565b6040516102bd91906126a9565b60405180910390f35b6102e060048036038101906102db91906125a5565b61084f565b6040516102ed9190612613565b60405180910390f35b610310600480360381019061030b91906125a5565b6108d5565b60405161031f93929190612783565b60405180910390f35b610342600480360381019061033d91906127c1565b6109a0565b60405161034f91906126a9565b60405180910390f35b610360610a57565b60405161036d919061254d565b60405180910390f35b610390600480360381019061038b91906127ee565b610ae9565b005b6103ac60048036038101906103a79190612963565b610aff565b005b6103c860048036038101906103c39190612a60565b610b4f565b005b6103e460048036038101906103df91906125a5565b610bb1565b6040516103f1919061254d565b60405180910390f35b610414600480360381019061040f9190612ae3565b610c61565b60405161042191906124a2565b60405180910390f35b610444600480360381019061043f91906125a5565b610cf5565b604051610452929190612b23565b60405180910390f35b600061046682610d3a565b9050919050565b60606000805461047c90612b82565b80601f01602080910402602001604051908101604052809291908181526020018280546104a890612b82565b80156104f55780601f106104ca576101008083540402835291602001916104f5565b820191906000526020600020905b8154815290600101906020018083116104d857829003601f168201915b5050505050905090565b600061050a82610db4565b6004600083815260200190815260200160002060009054906101000a900473ffffffffffffffffffffffffffffffffffffffff169050919050565b60006105508261084f565b90508073ffffffffffffffffffffffffffffffffffffffff168373ffffffffffffffffffffffffffffffffffffffff16036105c0576040517f08c379a00000000000000000000000000000000000000000000000000000000081526004016105b790612c25565b60405180910390fd5b8073ffffffffffffffffffffffffffffffffffffffff166105df610dff565b73ffffffffffffffffffffffffffffffffffffffff16148061060e575061060d81610608610dff565b610c61565b5b61064d576040517f08c379a000000000000000000000000000000000000000000000000000000000815260040161064490612cb7565b60405180910390fd5b6106578383610e07565b505050565b6000610667336109a0565b905090565b6000610676610ec0565b905090565b61068c610686610dff565b82610ecd565b6106cb576040517f08c379a00000000000000000000000000000000000000000000000000000000081526004016106c290612d49565b60405180910390fd5b6106d6838383610f62565b505050565b60006106e6836109a0565b8210610727576040517f08c379a000000000000000000000000000000000000000000000000000000000815260040161071e90612ddb565b60405180910390fd5b600760008473ffffffffffffffffffffffffffffffffffffffff1673ffffffffffffffffffffffffffffffffffffffff168152602001908152602001600020600083815260200190815260200160002054905092915050565b600061078c33846106db565b905081600b600083815260200190815260200160002060006101000a81548160ff021916908315150217905550505050565b6107d983838360405180602001604052806000815250610b4f565b505050565b60006107e8610ec0565b8210610829576040517f08c379a000000000000000000000000000000000000000000000000000000000815260040161082090612e6d565b60405180910390fd5b6009828154811061083d5761083c612e8d565b5b90600052602060002001549050919050565b60008061085b8361125b565b9050600073ffffffffffffffffffffffffffffffffffffffff168173ffffffffffffffffffffffffffffffffffffffff16036108cc576040517f08c379a00000000000000000000000000000000000000000000000000000000081526004016108c390612f08565b60405180910390fd5b80915050919050565b606060008060006108e461066c565b90505b80851080156108f7575060008510155b1561097c576000610907866107de565b9050600b600082815260200190815260200160002060009054906101000a900460ff16156109675761093881610bb1565b86600b600084815260200190815260200160002060009054906101000a900460ff169450945094505050610999565b506001856109759190612f57565b94506108e7565b846001604051806020016040528060008152509190935093509350505b9193909250565b60008073ffffffffffffffffffffffffffffffffffffffff168273ffffffffffffffffffffffffffffffffffffffff1603610a10576040517f08c379a0000000000000000000000000000000000000000000000000000000008152600401610a0790612ffd565b60405180910390fd5b600360008373ffffffffffffffffffffffffffffffffffffffff1673ffffffffffffffffffffffffffffffffffffffff168152602001908152602001600020549050919050565b606060018054610a6690612b82565b80601f0160208091040260200160405190810160405280929190818152602001828054610a9290612b82565b8015610adf5780601f10610ab457610100808354040283529160200191610adf565b820191906000526020600020905b815481529060010190602001808311610ac257829003601f168201915b5050505050905090565b610afb610af4610dff565b8383611298565b5050565b6000610b0961066c565b9050610b153382611404565b610b1f8184611422565b81600b600083815260200190815260200160002060006101000a81548160ff021916908315150217905550505050565b610b60610b5a610dff565b83610ecd565b610b9f576040517f08c379a0000000000000000000000000000000000000000000000000000000008152600401610b9690612d49565b60405180910390fd5b610bab8484848461148f565b50505050565b6060600b600083815260200190815260200160002060009054906101000a900460ff1680610c125750610be38261084f565b73ffffffffffffffffffffffffffffffffffffffff163373ffffffffffffffffffffffffffffffffffffffff16145b610c51576040517f08c379a0000000000000000000000000000000000000000000000000000000008152600401610c4890613069565b60405180910390fd5b610c5a826114eb565b9050919050565b6000600560008473ffffffffffffffffffffffffffffffffffffffff1673ffffffffffffffffffffffffffffffffffffffff16815260200190815260200160002060008373ffffffffffffffffffffffffffffffffffffffff1673ffffffffffffffffffffffffffffffffffffffff16815260200190815260200160002060009054906101000a900460ff16905092915050565b6060600080610d0433856106db565b9050610d0f81610bb1565b600b600083815260200190815260200160002060009054906101000a900460ff169250925050915091565b60007f780e9d63000000000000000000000000000000000000000000000000000000007bffffffffffffffffffffffffffffffffffffffffffffffffffffffff1916827bffffffffffffffffffffffffffffffffffffffffffffffffffffffff19161480610dad5750610dac826115fd565b5b9050919050565b610dbd816116df565b610dfc576040517f08c379a0000000000000000000000000000000000000000000000000000000008152600401610df390612f08565b60405180910390fd5b50565b600033905090565b816004600083815260200190815260200160002060006101000a81548173ffffffffffffffffffffffffffffffffffffffff021916908373ffffffffffffffffffffffffffffffffffffffff160217905550808273ffffffffffffffffffffffffffffffffffffffff16610e7a8361084f565b73ffffffffffffffffffffffffffffffffffffffff167f8c5be1e5ebec7d5bd14f71427d1e84f3dd0314c0f7b2291e5b200ac8c7c3b92560405160405180910390a45050565b6000600980549050905090565b600080610ed98361084f565b90508073ffffffffffffffffffffffffffffffffffffffff168473ffffffffffffffffffffffffffffffffffffffff161480610f1b5750610f1a8185610c61565b5b80610f5957508373ffffffffffffffffffffffffffffffffffffffff16610f41846104ff565b73ffffffffffffffffffffffffffffffffffffffff16145b91505092915050565b8273ffffffffffffffffffffffffffffffffffffffff16610f828261084f565b73ffffffffffffffffffffffffffffffffffffffff1614610fd8576040517f08c379a0000000000000000000000000000000000000000000000000000000008152600401610fcf906130fb565b60405180910390fd5b600073ffffffffffffffffffffffffffffffffffffffff168273ffffffffffffffffffffffffffffffffffffffff1603611047576040517f08c379a000000000000000000000000000000000000000000000000000000000815260040161103e9061318d565b60405180910390fd5b6110548383836001611720565b8273ffffffffffffffffffffffffffffffffffffffff166110748261084f565b73ffffffffffffffffffffffffffffffffffffffff16146110ca576040517f08c379a00000000000000000000000000000000000000000000000000000000081526004016110c1906130fb565b60405180910390fd5b6004600082815260200190815260200160002060006101000a81549073ffffffffffffffffffffffffffffffffffffffff02191690556001600360008573ffffffffffffffffffffffffffffffffffffffff1673ffffffffffffffffffffffffffffffffffffffff168152602001908152602001600020600082825403925050819055506001600360008473ffffffffffffffffffffffffffffffffffffffff1673ffffffffffffffffffffffffffffffffffffffff16815260200190815260200160002060008282540192505081905550816002600083815260200190815260200160002060006101000a81548173ffffffffffffffffffffffffffffffffffffffff021916908373ffffffffffffffffffffffffffffffffffffffff160217905550808273ffffffffffffffffffffffffffffffffffffffff168473ffffffffffffffffffffffffffffffffffffffff167fddf252ad1be2c89b69c2b068fc378daa952ba7f163c4a11628f55a4df523b3ef60405160405180910390a46112568383836001611732565b505050565b60006002600083815260200190815260200160002060009054906101000a900473ffffffffffffffffffffffffffffffffffffffff169050919050565b8173ffffffffffffffffffffffffffffffffffffffff168373ffffffffffffffffffffffffffffffffffffffff1603611306576040517f08c379a00000000000000000000000000000000000000000000000000000000081526004016112fd906131f9565b60405180910390fd5b80600560008573ffffffffffffffffffffffffffffffffffffffff1673ffffffffffffffffffffffffffffffffffffffff16815260200190815260200160002060008473ffffffffffffffffffffffffffffffffffffffff1673ffffffffffffffffffffffffffffffffffffffff16815260200190815260200160002060006101000a81548160ff0219169083151502179055508173ffffffffffffffffffffffffffffffffffffffff168373ffffffffffffffffffffffffffffffffffffffff167f17307eab39ab6107e8899845ad3d59bd9653f200f220920489ca2b5937696c31836040516113f791906124a2565b60405180910390a3505050565b61141e828260405180602001604052806000815250611738565b5050565b61142b826116df565b61146a576040517f08c379a00000000000000000000000000000000000000000000000000000000081526004016114619061328b565b60405180910390fd5b8060066000848152602001908152602001600020908161148a9190613457565b505050565b61149a848484610f62565b6114a684848484611793565b6114e5576040517f08c379a00000000000000000000000000000000000000000000000000000000081526004016114dc9061359b565b60405180910390fd5b50505050565b60606114f682610db4565b600060066000848152602001908152602001600020805461151690612b82565b80601f016020809104026020016040519081016040528092919081815260200182805461154290612b82565b801561158f5780601f106115645761010080835404028352916020019161158f565b820191906000526020600020905b81548152906001019060200180831161157257829003601f168201915b5050505050905060006115a061191a565b905060008151036115b55781925050506115f8565b6000825111156115ea5780826040516020016115d29291906135f7565b604051602081830303815290604052925050506115f8565b6115f384611931565b925050505b919050565b60007f80ac58cd000000000000000000000000000000000000000000000000000000007bffffffffffffffffffffffffffffffffffffffffffffffffffffffff1916827bffffffffffffffffffffffffffffffffffffffffffffffffffffffff191614806116c857507f5b5e139f000000000000000000000000000000000000000000000000000000007bffffffffffffffffffffffffffffffffffffffffffffffffffffffff1916827bffffffffffffffffffffffffffffffffffffffffffffffffffffffff1916145b806116d857506116d782611999565b5b9050919050565b60008073ffffffffffffffffffffffffffffffffffffffff166117018361125b565b73ffffffffffffffffffffffffffffffffffffffff1614159050919050565b61172c84848484611a03565b50505050565b50505050565b6117428383611b61565b61174f6000848484611793565b61178e576040517f08c379a00000000000000000000000000000000000000000000000000000000081526004016117859061359b565b60405180910390fd5b505050565b60006117b48473ffffffffffffffffffffffffffffffffffffffff16611d7e565b1561190d578373ffffffffffffffffffffffffffffffffffffffff1663150b7a026117dd610dff565b8786866040518563ffffffff1660e01b81526004016117ff9493929190613670565b6020604051808303816000875af192505050801561183b57506040513d601f19601f8201168201806040525081019061183891906136d1565b60015b6118bd573d806000811461186b576040519150601f19603f3d011682016040523d82523d6000602084013e611870565b606091505b5060008151036118b5576040517f08c379a00000000000000000000000000000000000000000000000000000000081526004016118ac9061359b565b60405180910390fd5b805181602001fd5b63150b7a0260e01b7bffffffffffffffffffffffffffffffffffffffffffffffffffffffff1916817bffffffffffffffffffffffffffffffffffffffffffffffffffffffff191614915050611912565b600190505b949350505050565b606060405180602001604052806000815250905090565b606061193c82610db4565b600061194661191a565b905060008151116119665760405180602001604052806000815250611991565b8061197084611da1565b6040516020016119819291906135f7565b6040516020818303038152906040525b915050919050565b60007f01ffc9a7000000000000000000000000000000000000000000000000000000007bffffffffffffffffffffffffffffffffffffffffffffffffffffffff1916827bffffffffffffffffffffffffffffffffffffffffffffffffffffffff1916149050919050565b611a0f84848484611e6f565b6001811115611a53576040517f08c379a0000000000000000000000000000000000000000000000000000000008152600401611a4a90613770565b60405180910390fd5b6000829050600073ffffffffffffffffffffffffffffffffffffffff168573ffffffffffffffffffffffffffffffffffffffff1603611a9a57611a9581611f95565b611ad9565b8373ffffffffffffffffffffffffffffffffffffffff168573ffffffffffffffffffffffffffffffffffffffff1614611ad857611ad78582611fde565b5b5b600073ffffffffffffffffffffffffffffffffffffffff168473ffffffffffffffffffffffffffffffffffffffff1603611b1b57611b168161214b565b611b5a565b8473ffffffffffffffffffffffffffffffffffffffff168473ffffffffffffffffffffffffffffffffffffffff1614611b5957611b58848261221c565b5b5b5050505050565b600073ffffffffffffffffffffffffffffffffffffffff168273ffffffffffffffffffffffffffffffffffffffff1603611bd0576040517f08c379a0000000000000000000000000000000000000000000000000000000008152600401611bc7906137dc565b60405180910390fd5b611bd9816116df565b15611c19576040517f08c379a0000000000000000000000000000000000000000000000000000000008152600401611c1090613848565b60405180910390fd5b611c27600083836001611720565b611c30816116df565b15611c70576040517f08c379a0000000000000000000000000000000000000000000000000000000008152600401611c6790613848565b60405180910390fd5b6001600360008473ffffffffffffffffffffffffffffffffffffffff1673ffffffffffffffffffffffffffffffffffffffff16815260200190815260200160002060008282540192505081905550816002600083815260200190815260200160002060006101000a81548173ffffffffffffffffffffffffffffffffffffffff021916908373ffffffffffffffffffffffffffffffffffffffff160217905550808273ffffffffffffffffffffffffffffffffffffffff16600073ffffffffffffffffffffffffffffffffffffffff167fddf252ad1be2c89b69c2b068fc378daa952ba7f163c4a11628f55a4df523b3ef60405160405180910390a4611d7a600083836001611732565b5050565b6000808273ffffffffffffffffffffffffffffffffffffffff163b119050919050565b606060006001611db08461229b565b01905060008167ffffffffffffffff811115611dcf57611dce612838565b5b6040519080825280601f01601f191660200182016040528015611e015781602001600182028036833780820191505090505b509050600082602001820190505b600115611e64578080600190039150507f3031323334353637383961626364656600000000000000000000000000000000600a86061a8153600a8581611e5857611e57613868565b5b04945060008503611e0f575b819350505050919050565b6001811115611f8f57600073ffffffffffffffffffffffffffffffffffffffff168473ffffffffffffffffffffffffffffffffffffffff1614611f035780600360008673ffffffffffffffffffffffffffffffffffffffff1673ffffffffffffffffffffffffffffffffffffffff1681526020019081526020016000206000828254611efb9190612f57565b925050819055505b600073ffffffffffffffffffffffffffffffffffffffff168373ffffffffffffffffffffffffffffffffffffffff1614611f8e5780600360008573ffffffffffffffffffffffffffffffffffffffff1673ffffffffffffffffffffffffffffffffffffffff1681526020019081526020016000206000828254611f869190613897565b925050819055505b5b50505050565b600980549050600a600083815260200190815260200160002081905550600981908060018154018082558091505060019003906000526020600020016000909190919091505550565b60006001611feb846109a0565b611ff59190612f57565b90506000600860008481526020019081526020016000205490508181146120da576000600760008673ffffffffffffffffffffffffffffffffffffffff1673ffffffffffffffffffffffffffffffffffffffff168152602001908152602001600020600084815260200190815260200160002054905080600760008773ffffffffffffffffffffffffffffffffffffffff1673ffffffffffffffffffffffffffffffffffffffff168152602001908152602001600020600084815260200190815260200160002081905550816008600083815260200190815260200160002081905550505b6008600084815260200190815260200160002060009055600760008573ffffffffffffffffffffffffffffffffffffffff1673ffffffffffffffffffffffffffffffffffffffff16815260200190815260200160002060008381526020019081526020016000206000905550505050565b6000600160098054905061215f9190612f57565b90506000600a600084815260200190815260200160002054905060006009838154811061218f5761218e612e8d565b5b9060005260206000200154905080600983815481106121b1576121b0612e8d565b5b906000526020600020018190555081600a600083815260200190815260200160002081905550600a6000858152602001908152602001600020600090556009805480612200576121ff6138cb565b5b6001900381819060005260206000200160009055905550505050565b6000612227836109a0565b905081600760008573ffffffffffffffffffffffffffffffffffffffff1673ffffffffffffffffffffffffffffffffffffffff168152602001908152602001600020600083815260200190815260200160002081905550806008600084815260200190815260200160002081905550505050565b600080600090507a184f03e93ff9f4daa797ed6e38ed64bf6a1f01000000000000000083106122f9577a184f03e93ff9f4daa797ed6e38ed64bf6a1f01000000000000000083816122ef576122ee613868565b5b0492506040810190505b6d04ee2d6d415b85acef81000000008310612336576d04ee2d6d415b85acef8100000000838161232c5761232b613868565b5b0492506020810190505b662386f26fc10000831061236557662386f26fc10000838161235b5761235a613868565b5b0492506010810190505b6305f5e100831061238e576305f5e100838161238457612383613868565b5b0492506008810190505b61271083106123b35761271083816123a9576123a8613868565b5b0492506004810190505b606483106123d657606483816123cc576123cb613868565b5b0492506002810190505b600a83106123e5576001810190505b80915050919050565b6000604051905090565b600080fd5b600080fd5b60007fffffffff0000000000000000000000000000000000000000000000000000000082169050919050565b61243781612402565b811461244257600080fd5b50565b6000813590506124548161242e565b92915050565b6000602082840312156124705761246f6123f8565b5b600061247e84828501612445565b91505092915050565b60008115159050919050565b61249c81612487565b82525050565b60006020820190506124b76000830184612493565b92915050565b600081519050919050565b600082825260208201905092915050565b60005b838110156124f75780820151818401526020810190506124dc565b60008484015250505050565b6000601f19601f8301169050919050565b600061251f826124bd565b61252981856124c8565b93506125398185602086016124d9565b61254281612503565b840191505092915050565b600060208201905081810360008301526125678184612514565b905092915050565b6000819050919050565b6125828161256f565b811461258d57600080fd5b50565b60008135905061259f81612579565b92915050565b6000602082840312156125bb576125ba6123f8565b5b60006125c984828501612590565b91505092915050565b600073ffffffffffffffffffffffffffffffffffffffff82169050919050565b60006125fd826125d2565b9050919050565b61260d816125f2565b82525050565b60006020820190506126286000830184612604565b92915050565b612637816125f2565b811461264257600080fd5b50565b6000813590506126548161262e565b92915050565b60008060408385031215612671576126706123f8565b5b600061267f85828601612645565b925050602061269085828601612590565b9150509250929050565b6126a38161256f565b82525050565b60006020820190506126be600083018461269a565b92915050565b6000806000606084860312156126dd576126dc6123f8565b5b60006126eb86828701612645565b93505060206126fc86828701612645565b925050604061270d86828701612590565b9150509250925092565b61272081612487565b811461272b57600080fd5b50565b60008135905061273d81612717565b92915050565b6000806040838503121561275a576127596123f8565b5b600061276885828601612590565b92505060206127798582860161272e565b9150509250929050565b6000606082019050818103600083015261279d8186612514565b90506127ac602083018561269a565b6127b96040830184612493565b949350505050565b6000602082840312156127d7576127d66123f8565b5b60006127e584828501612645565b91505092915050565b60008060408385031215612805576128046123f8565b5b600061281385828601612645565b92505060206128248582860161272e565b9150509250929050565b600080fd5b600080fd5b7f4e487b7100000000000000000000000000000000000000000000000000000000600052604160045260246000fd5b61287082612503565b810181811067ffffffffffffffff8211171561288f5761288e612838565b5b80604052505050565b60006128a26123ee565b90506128ae8282612867565b919050565b600067ffffffffffffffff8211156128ce576128cd612838565b5b6128d782612503565b9050602081019050919050565b82818337600083830152505050565b6000612906612901846128b3565b612898565b90508281526020810184848401111561292257612921612833565b5b61292d8482856128e4565b509392505050565b600082601f83011261294a5761294961282e565b5b813561295a8482602086016128f3565b91505092915050565b6000806040838503121561297a576129796123f8565b5b600083013567ffffffffffffffff811115612998576129976123fd565b5b6129a485828601612935565b92505060206129b58582860161272e565b9150509250929050565b600067ffffffffffffffff8211156129da576129d9612838565b5b6129e382612503565b9050602081019050919050565b6000612a036129fe846129bf565b612898565b905082815260208101848484011115612a1f57612a1e612833565b5b612a2a8482856128e4565b509392505050565b600082601f830112612a4757612a4661282e565b5b8135612a578482602086016129f0565b91505092915050565b60008060008060808587031215612a7a57612a796123f8565b5b6000612a8887828801612645565b9450506020612a9987828801612645565b9350506040612aaa87828801612590565b925050606085013567ffffffffffffffff811115612acb57612aca6123fd565b5b612ad787828801612a32565b91505092959194509250565b60008060408385031215612afa57612af96123f8565b5b6000612b0885828601612645565b9250506020612b1985828601612645565b9150509250929050565b60006040820190508181036000830152612b3d8185612514565b9050612b4c6020830184612493565b9392505050565b7f4e487b7100000000000000000000000000000000000000000000000000000000600052602260045260246000fd5b60006002820490506001821680612b9a57607f821691505b602082108103612bad57612bac612b53565b5b50919050565b7f4552433732313a20617070726f76616c20746f2063757272656e74206f776e6560008201527f7200000000000000000000000000000000000000000000000000000000000000602082015250565b6000612c0f6021836124c8565b9150612c1a82612bb3565b604082019050919050565b60006020820190508181036000830152612c3e81612c02565b9050919050565b7f4552433732313a20617070726f76652063616c6c6572206973206e6f7420746f60008201527f6b656e206f776e6572206f7220617070726f76656420666f7220616c6c000000602082015250565b6000612ca1603d836124c8565b9150612cac82612c45565b604082019050919050565b60006020820190508181036000830152612cd081612c94565b9050919050565b7f4552433732313a2063616c6c6572206973206e6f7420746f6b656e206f776e6560008201527f72206f7220617070726f76656400000000000000000000000000000000000000602082015250565b6000612d33602d836124c8565b9150612d3e82612cd7565b604082019050919050565b60006020820190508181036000830152612d6281612d26565b9050919050565b7f455243373231456e756d657261626c653a206f776e657220696e646578206f7560008201527f74206f6620626f756e6473000000000000000000000000000000000000000000602082015250565b6000612dc5602b836124c8565b9150612dd082612d69565b604082019050919050565b60006020820190508181036000830152612df481612db8565b9050919050565b7f455243373231456e756d657261626c653a20676c6f62616c20696e646578206f60008201527f7574206f6620626f756e64730000000000000000000000000000000000000000602082015250565b6000612e57602c836124c8565b9150612e6282612dfb565b604082019050919050565b60006020820190508181036000830152612e8681612e4a565b9050919050565b7f4e487b7100000000000000000000000000000000000000000000000000000000600052603260045260246000fd5b7f4552433732313a20696e76616c696420746f6b656e2049440000000000000000600082015250565b6000612ef26018836124c8565b9150612efd82612ebc565b602082019050919050565b60006020820190508181036000830152612f2181612ee5565b9050919050565b7f4e487b7100000000000000000000000000000000000000000000000000000000600052601160045260246000fd5b6000612f628261256f565b9150612f6d8361256f565b9250828203905081811115612f8557612f84612f28565b5b92915050565b7f4552433732313a2061646472657373207a65726f206973206e6f74206120766160008201527f6c6964206f776e65720000000000000000000000000000000000000000000000602082015250565b6000612fe76029836124c8565b9150612ff282612f8b565b604082019050919050565b6000602082019050818103600083015261301681612fda565b9050919050565b7f6e6f207065726d697373696f6e00000000000000000000000000000000000000600082015250565b6000613053600d836124c8565b915061305e8261301d565b602082019050919050565b6000602082019050818103600083015261308281613046565b9050919050565b7f4552433732313a207472616e736665722066726f6d20696e636f72726563742060008201527f6f776e6572000000000000000000000000000000000000000000000000000000602082015250565b60006130e56025836124c8565b91506130f082613089565b604082019050919050565b60006020820190508181036000830152613114816130d8565b9050919050565b7f4552433732313a207472616e7366657220746f20746865207a65726f2061646460008201527f7265737300000000000000000000000000000000000000000000000000000000602082015250565b60006131776024836124c8565b91506131828261311b565b604082019050919050565b600060208201905081810360008301526131a68161316a565b9050919050565b7f4552433732313a20617070726f766520746f2063616c6c657200000000000000600082015250565b60006131e36019836124c8565b91506131ee826131ad565b602082019050919050565b60006020820190508181036000830152613212816131d6565b9050919050565b7f45524337323155524953746f726167653a2055524920736574206f66206e6f6e60008201527f6578697374656e7420746f6b656e000000000000000000000000000000000000602082015250565b6000613275602e836124c8565b915061328082613219565b604082019050919050565b600060208201905081810360008301526132a481613268565b9050919050565b60008190508160005260206000209050919050565b60006020601f8301049050919050565b600082821b905092915050565b60006008830261330d7fffffffffffffffffffffffffffffffffffffffffffffffffffffffffffffffff826132d0565b61331786836132d0565b95508019841693508086168417925050509392505050565b6000819050919050565b600061335461334f61334a8461256f565b61332f565b61256f565b9050919050565b6000819050919050565b61336e83613339565b61338261337a8261335b565b8484546132dd565b825550505050565b600090565b61339761338a565b6133a2818484613365565b505050565b5b818110156133c6576133bb60008261338f565b6001810190506133a8565b5050565b601f82111561340b576133dc816132ab565b6133e5846132c0565b810160208510156133f4578190505b613408613400856132c0565b8301826133a7565b50505b505050565b600082821c905092915050565b600061342e60001984600802613410565b1980831691505092915050565b6000613447838361341d565b9150826002028217905092915050565b613460826124bd565b67ffffffffffffffff81111561347957613478612838565b5b6134838254612b82565b61348e8282856133ca565b600060209050601f8311600181146134c157600084156134af578287015190505b6134b9858261343b565b865550613521565b601f1984166134cf866132ab565b60005b828110156134f7578489015182556001820191506020850194506020810190506134d2565b868310156135145784890151613510601f89168261341d565b8355505b6001600288020188555050505b505050505050565b7f4552433732313a207472616e7366657220746f206e6f6e20455243373231526560008201527f63656976657220696d706c656d656e7465720000000000000000000000000000602082015250565b60006135856032836124c8565b915061359082613529565b604082019050919050565b600060208201905081810360008301526135b481613578565b9050919050565b600081905092915050565b60006135d1826124bd565b6135db81856135bb565b93506135eb8185602086016124d9565b80840191505092915050565b600061360382856135c6565b915061360f82846135c6565b91508190509392505050565b600081519050919050565b600082825260208201905092915050565b60006136428261361b565b61364c8185613626565b935061365c8185602086016124d9565b61366581612503565b840191505092915050565b60006080820190506136856000830187612604565b6136926020830186612604565b61369f604083018561269a565b81810360608301526136b18184613637565b905095945050505050565b6000815190506136cb8161242e565b92915050565b6000602082840312156136e7576136e66123f8565b5b60006136f5848285016136bc565b91505092915050565b7f455243373231456e756d657261626c653a20636f6e736563757469766520747260008201527f616e7366657273206e6f7420737570706f727465640000000000000000000000602082015250565b600061375a6035836124c8565b9150613765826136fe565b604082019050919050565b600060208201905081810360008301526137898161374d565b9050919050565b7f4552433732313a206d696e7420746f20746865207a65726f2061646472657373600082015250565b60006137c66020836124c8565b91506137d182613790565b602082019050919050565b600060208201905081810360008301526137f5816137b9565b9050919050565b7f4552433732313a20746f6b656e20616c7265616479206d696e74656400000000600082015250565b6000613832601c836124c8565b915061383d826137fc565b602082019050919050565b6000602082019050818103600083015261386181613825565b9050919050565b7f4e487b7100000000000000000000000000000000000000000000000000000000600052601260045260246000fd5b60006138a28261256f565b91506138ad8361256f565b92508282019050808211156138c5576138c4612f28565b5b92915050565b7f4e487b7100000000000000000000000000000000000000000000000000000000600052603160045260246000fdfea264697066735822122023ca83fcc7ca5a01cbcd3a307737b910c5e95fb2c13e0a397ab4cec2c6f3185c64736f6c63430008110033",
  "linkReferences": {},
  "deployedLinkReferences": {}
}